:1000000043C0000051C000004FC000004DC00000C0
:100010004BC0000049C0000047C0000045C00000C0
:1000200043C0000041C000003FC000003DC00000D0
:100030003BC0000039C0000037C0000035C00000E0
:1000400033C0000031C0000076C0000049C000008D
:100050002BC0000029C0000027C0000025C0000000
:1000600023C0000021C000000D0A5465737453655D
:100070007269616C2056657273696F6E3A20302E1A
:10008000312E302E3050520011241FBECFEFD8E059
:10009000DEBFCDBF23E0A0E0B1E001C01D92A430DF
:1000A000B207E1F705D0ECC0ABCFD2D07894089579
:1000B000FCDF88E690E0A6D0B2D05ED0D82F8823AF
:1000C000E1F38CE778D080E0AFD08D2FADD08CE716
:1000D00072D0C0E085D06FD0CF5FDC13FBCFEDCF07
:1000E0001F920F920FB60F9211248F939F93EF934D
:1000F000FF9390910202809103029817B1F0E09172
:100100000302F0E0EC5FFD4F80818093C600809198
:1001100003028F5F80930302FF91EF919F918F9174
:100120000F900FBE0F901F9018958091C1008F7D8A
:100130008093C100F1CF1F920F920FB60F9211243E
:100140008F93EF93FF93809100018F5F8093000165
:100150008091000180910101E09100018091C60031
:10016000F0E0EE5FFE4F8083FF91EF918F910F9053
:100170000FBE0F901F901895909100018091010182
:100180009817B1F09091000180910101891738F41E
:100190008091000190910101891B990B0895809134
:1001A00000012091010190E09395821B910908952F
:1001B00090E080E00895909102029F5F20910302F9
:1001C0002917E1F3E0910202F0E0EC5FFD4F80833C
:1001D000909302028091C10080628093C1000895D3
:1001E00090910001809101019817D1F38091010154
:1001F0008F5F80930101E0910101F0E0EE5FFE4F1F
:1002000080810895CF93DF93EC01FE0184912196C4
:10021000811103C0DF91CF910895CDDFF6CF8DE03E
:10022000CADF8AE0C8CF0895CF93C82F82958F7018
:100230008A3050F0895ABFDF8C2F8F708A3030F0AF
:10024000895AB9DFCF910895805DF5CF805DF9CFF0
:1002500086E08093C2008AE18093C50089E08093A4
:10026000C40082E08093C00088E98093C1001092AE
:1002700003021092020210920101109200010895EF
:04028000F894FFCF20
:00000001FF
