:1000000033C0000041C000003FC000003DC0000000
:100010003BC0000039C0000037C0000035C0000000
:1000200033C0000031C000002FC000002DC0000010
:100030002BC0000029C0000027C0000025C0000020
:1000400023C0000021C000001FC000001DC0000030
:100050001BC0000019C0000017C0000015C0000040
:1000600013C0000011C0000011241FBECFEFD8E064
:10007000DEBFCDBF21E0A0E0B1E001C01D92A53000
:10008000B207E1F738D056C0BBCFEF92FF921F9373
:10009000CF93DF9382E090E048D07C0110E0C2E093
:1000A000D0E0CE15DF0588F081E090E036D08117F2
:1000B00099F012BC11BC1092000112BC11BCDF916E
:1000C000CF911F91FF90EF900895CE018050904006
:1000D00024D0180F2196E5CFA70160E070E080E002
:1000E00091E00BD081E080930001E7CF569A5E9AB1
:1000F0007894CBCF0895FADFFFCFDC01CB01FC0170
:10010000F999FECF06C0F2BDE1BDF89A319600B470
:100110000D9241505040B8F70895F999FECF92BD25
:1001200081BDF89A992780B50895A8E1B0E042E032
:0801300050E0E5CFF894FFCF89
:00000001FF
