:1000000033C0000041C000003FC000003DC0000000
:100010003BC0000039C0000037C0000035C0000000
:1000200033C0000031C000002FC000002DC0000010
:100030002BC0000029C0000027C0000025C0000020
:1000400023C0000021C0000052C0000025C00000F5
:100050001BC0000019C0000017C0000015C0000040
:1000600013C0000011C0000011241FBECFEFD8E064
:10007000DEBFCDBF23E0A0E0B1E001C01D92A430FF
:10008000B207E1F702D084C0BBCF789451D0882367
:10009000E9F36CD056D0FACF1F920F920FB60F92A1
:1000A00011248F939F93EF93FF939091020280917D
:1000B00003029817B1F0E0910302F0E0EC5FFD4F0E
:1000C00080818093C600809103028F5F809303023A
:1000D000FF91EF919F918F910F900FBE0F901F9006
:1000E00018958091C1008F7D8093C100F1CF1F9240
:1000F0000F920FB60F9211248F93EF93FF9380917D
:1001000000018F5F809300018091000180910101C7
:10011000E09100018091C600F0E0EE5FFE4F808329
:10012000FF91EF918F910F900FBE0F901F90189538
:10013000209100019091010181E0291301C080E02C
:100140000895909102029F5F209103022917E1F325
:10015000E0910202F0E0EC5FFD4F80839093020299
:100160008091C10080628093C10008959091000148
:10017000809101019817D1F3809101018F5F8093E5
:100180000101E0910101F0E0EE5FFE4F80810895F2
:04019000F894FFCF11
:00000001FF
